{
    "contractName": "ZombieFactory",
    "abi": [
        {
            "constant": true,
            "inputs": [
                {
                    "name": "",
                    "type": "uint256"
                }
            ],
            "name": "zombies",
            "outputs": [
                {
                    "name": "name",
                    "type": "string"
                },
                {
                    "name": "dna",
                    "type": "uint256"
                }
            ],
            "payable": false,
            "stateMutability": "view",
            "type": "function"
        },
        {
            "constant": false,
            "inputs": [
                {
                    "name": "_name",
                    "type": "string"
                }
            ],
            "name": "createRandomZombie",
            "outputs": [],
            "payable": false,
            "stateMutability": "nonpayable",
            "type": "function"
        },
        {
            "anonymous": false,
            "inputs": [
                {
                    "indexed": false,
                    "name": "zombieId",
                    "type": "uint256"
                },
                {
                    "indexed": false,
                    "name": "name",
                    "type": "string"
                },
                {
                    "indexed": false,
                    "name": "dna",
                    "type": "uint256"
                }
            ],
            "name": "NewZombie",
            "type": "event"
        }
    ],
    "bytecode": "60806040526010600055662386f26fc1000060015534801561002057600080fd5b506104dd806100306000396000f30060806040526004361061004b5763ffffffff7c01000000000000000000000000000000000000000000000000000000006000350416632052465e81146100505780637bff0a01146100e7575b600080fd5b34801561005c57600080fd5b50610068600435610142565b6040518080602001838152602001828103825284818151815260200191508051906020019080838360005b838110156100ab578181015183820152602001610093565b50505050905090810190601f1680156100d85780820380516001836020036101000a031916815260200191505b50935050505060405180910390f35b3480156100f357600080fd5b506040805160206004803580820135601f81018490048402850184019095528484526101409436949293602493928401919081908401838280828437509497506101f69650505050505050565b005b600280548290811061015057fe5b60009182526020918290206002918202018054604080516001831615610100026000190190921693909304601f8101859004850282018501909352828152909350918391908301828280156101e65780601f106101bb576101008083540402835291602001916101e6565b820191906000526020600020905b8154815290600101906020018083116101c957829003601f168201915b5050505050908060010154905082565b600061020182610211565b905061020d82826102f2565b5050565b600080826040516020018082805190602001908083835b602083106102475780518252601f199092019160209182019101610228565b6001836020036101000a0380198251168184511680821785525050505050509050019150506040516020818303038152906040526040518082805190602001908083835b602083106102aa5780518252601f19909201916020918201910161028b565b6001836020036101000a0380198251168184511680821785525050505050509050019150506040518091039020600190049050600154818115156102ea57fe5b069392505050565b60408051808201909152828152602080820183905260028054600181810180845560008481528651805191979396929593949093027f405787fa12a823e0f2b7631cc41b3ba8828b3321ca811111fa75cd3aa3bb5ace0192610358928492910190610416565b506020820151816001015550500390507f88f026aacbbecc90c18411df4b1185fd8d9be2470f1962f192bf84a27d0704b78184846040518084815260200180602001838152602001828103825284818151815260200191508051906020019080838360005b838110156103d55781810151838201526020016103bd565b50505050905090810190601f1680156104025780820380516001836020036101000a031916815260200191505b5094505050505060405180910390a1505050565b828054600181600116156101000203166002900490600052602060002090601f016020900481019282601f1061045757805160ff1916838001178555610484565b82800160010185558215610484579182015b82811115610484578251825591602001919060010190610469565b50610490929150610494565b5090565b6104ae91905b80821115610490576000815560010161049a565b905600a165627a7a72305820f1ec9656cc98d28a745956bbbb5c4eff990239586b4a8528c5814a04d74b0cd70029",
    "sourcePath": "f:/Proyectos Solidity/CryptoZombies.sol",
    "compiler": {
        "name": "solc",
        "version": "0.4.25+commit.59dbf8f1"
    },
    "functionHashes": {
        "createRandomZombie(string)": "7bff0a01",
        "zombies(uint256)": "2052465e"
    },
    "gasEstimates": {
        "creation": {
            "codeDepositCost": "249000",
            "executionCost": "40299",
            "totalCost": "289299"
        },
        "external": {
            "createRandomZombie(string)": "infinite",
            "zombies(uint256)": "infinite"
        },
        "internal": {
            "_createZombie(string memory,uint256)": "infinite",
            "_generateRandomDna(string memory)": "infinite"
        }
    }
}